{
  "contractName": "Contacts",
  "abi": [
    {
      "inputs": [],
      "stateMutability": "nonpayable",
      "type": "constructor"
    },
    {
      "inputs": [
        {
          "internalType": "uint256",
          "name": "",
          "type": "uint256"
        }
      ],
      "name": "contacts",
      "outputs": [
        {
          "internalType": "uint256",
          "name": "id",
          "type": "uint256"
        },
        {
          "internalType": "string",
          "name": "Manufacturename",
          "type": "string"
        },
        {
          "internalType": "string",
          "name": "Drugname",
          "type": "string"
        },
        {
          "internalType": "string",
          "name": "Composition",
          "type": "string"
        },
        {
          "internalType": "string",
          "name": "Targetedmedicalcondition",
          "type": "string"
        }
      ],
      "stateMutability": "view",
      "type": "function",
      "constant": true
    },
    {
      "inputs": [],
      "name": "count",
      "outputs": [
        {
          "internalType": "uint256",
          "name": "",
          "type": "uint256"
        }
      ],
      "stateMutability": "view",
      "type": "function",
      "constant": true
    },
    {
      "inputs": [
        {
          "internalType": "string",
          "name": "_mname",
          "type": "string"
        },
        {
          "internalType": "string",
          "name": "_dname",
          "type": "string"
        },
        {
          "internalType": "string",
          "name": "_comp",
          "type": "string"
        },
        {
          "internalType": "string",
          "name": "_target",
          "type": "string"
        }
      ],
      "name": "createContact",
      "outputs": [],
      "stateMutability": "nonpayable",
      "type": "function"
    }
  ],
  "bytecode": "0x60806040526000805534801561001457600080fd5b50610952806100246000396000f3fe608060405234801561001057600080fd5b50600436106100415760003560e01c806306661abd14610046578063ce88fd0414610064578063e0f478cb14610080575b600080fd5b61004e6100b4565b60405161005b91906104a7565b60405180910390f35b61007e6004803603810190610079919061061c565b6100ba565b005b61009a6004803603810190610095919061071f565b610195565b6040516100ab9594939291906107d4565b60405180910390f35b60005481565b6000808154809291906100cc90610872565b91905055506040518060a0016040528060005481526020018581526020018481526020018381526020018281525060016000805481526020019081526020016000206000820151816000015560208201518160010190805190602001906101349291906103eb565b5060408201518160020190805190602001906101519291906103eb565b50606082015181600301908051906020019061016e9291906103eb565b50608082015181600401908051906020019061018b9291906103eb565b5090505050505050565b60016020528060005260406000206000915090508060000154908060010180546101be906108ea565b80601f01602080910402602001604051908101604052809291908181526020018280546101ea906108ea565b80156102375780601f1061020c57610100808354040283529160200191610237565b820191906000526020600020905b81548152906001019060200180831161021a57829003601f168201915b50505050509080600201805461024c906108ea565b80601f0160208091040260200160405190810160405280929190818152602001828054610278906108ea565b80156102c55780601f1061029a576101008083540402835291602001916102c5565b820191906000526020600020905b8154815290600101906020018083116102a857829003601f168201915b5050505050908060030180546102da906108ea565b80601f0160208091040260200160405190810160405280929190818152602001828054610306906108ea565b80156103535780601f1061032857610100808354040283529160200191610353565b820191906000526020600020905b81548152906001019060200180831161033657829003601f168201915b505050505090806004018054610368906108ea565b80601f0160208091040260200160405190810160405280929190818152602001828054610394906108ea565b80156103e15780601f106103b6576101008083540402835291602001916103e1565b820191906000526020600020905b8154815290600101906020018083116103c457829003601f168201915b5050505050905085565b8280546103f7906108ea565b90600052602060002090601f0160209004810192826104195760008555610460565b82601f1061043257805160ff1916838001178555610460565b82800160010185558215610460579182015b8281111561045f578251825591602001919060010190610444565b5b50905061046d9190610471565b5090565b5b8082111561048a576000816000905550600101610472565b5090565b6000819050919050565b6104a18161048e565b82525050565b60006020820190506104bc6000830184610498565b92915050565b6000604051905090565b600080fd5b600080fd5b600080fd5b600080fd5b6000601f19601f8301169050919050565b7f4e487b7100000000000000000000000000000000000000000000000000000000600052604160045260246000fd5b610529826104e0565b810181811067ffffffffffffffff82111715610548576105476104f1565b5b80604052505050565b600061055b6104c2565b90506105678282610520565b919050565b600067ffffffffffffffff821115610587576105866104f1565b5b610590826104e0565b9050602081019050919050565b82818337600083830152505050565b60006105bf6105ba8461056c565b610551565b9050828152602081018484840111156105db576105da6104db565b5b6105e684828561059d565b509392505050565b600082601f830112610603576106026104d6565b5b81356106138482602086016105ac565b91505092915050565b60008060008060808587031215610636576106356104cc565b5b600085013567ffffffffffffffff811115610654576106536104d1565b5b610660878288016105ee565b945050602085013567ffffffffffffffff811115610681576106806104d1565b5b61068d878288016105ee565b935050604085013567ffffffffffffffff8111156106ae576106ad6104d1565b5b6106ba878288016105ee565b925050606085013567ffffffffffffffff8111156106db576106da6104d1565b5b6106e7878288016105ee565b91505092959194509250565b6106fc8161048e565b811461070757600080fd5b50565b600081359050610719816106f3565b92915050565b600060208284031215610735576107346104cc565b5b60006107438482850161070a565b91505092915050565b600081519050919050565b600082825260208201905092915050565b60005b8381101561078657808201518184015260208101905061076b565b83811115610795576000848401525b50505050565b60006107a68261074c565b6107b08185610757565b93506107c0818560208601610768565b6107c9816104e0565b840191505092915050565b600060a0820190506107e96000830188610498565b81810360208301526107fb818761079b565b9050818103604083015261080f818661079b565b90508181036060830152610823818561079b565b90508181036080830152610837818461079b565b90509695505050505050565b7f4e487b7100000000000000000000000000000000000000000000000000000000600052601160045260246000fd5b600061087d8261048e565b91507fffffffffffffffffffffffffffffffffffffffffffffffffffffffffffffffff8214156108b0576108af610843565b5b600182019050919050565b7f4e487b7100000000000000000000000000000000000000000000000000000000600052602260045260246000fd5b6000600282049050600182168061090257607f821691505b60208210811415610916576109156108bb565b5b5091905056fea264697066735822122067eef224057a9a4fc679596b01f99cadaf4b4d85a4c197e27077e5dd17503ed964736f6c634300080a0033",
  "immutableReferences": {},
  "source": "// SPDX-License-Identifier: MIT \r\npragma solidity ^0.8.10;\r\n\r\ncontract Contacts {\r\n  uint public count = 0; // state variable\r\n\r\n  struct Contact {\r\n    uint id;\r\n    string Manufacturename;\r\n    string Drugname;\r\n    string Composition;\r\n    string Targetedmedicalcondition;\r\n  }\r\n\r\n  constructor() {\r\n    //createContact('Gilead Sciences', 'Remdesivir', 'Remdesivir 50%', 'COVID-19');\r\n  }\r\n\r\n  mapping(uint => Contact) public contacts;\r\n\r\n  function createContact(string memory _mname, string memory _dname, string memory _comp, string memory _target) \r\n  public {\r\n    count++;\r\n    contacts[count] = Contact(count, _mname, _dname, _comp, _target);\r\n  }\r\n}",
  "sourcePath": "C:\\Users\\Ankita\\OneDrive - Vidyalankar Institute of Technology\\Documents\\New folder\\blockchain\\blockchain_DrugProject\\contracts\\Contacts.sol",
  "compiler": {
    "name": "solc",
    "version": "0.8.10+commit.fc410830.Emscripten.clang"
  },
  "schemaVersion": "3.4.16",
  "updatedAt": "2025-03-28T14:38:43.328Z",
  "networkType": "ethereum",
  "devdoc": {
    "kind": "dev",
    "methods": {},
    "version": 1
  },
  "userdoc": {
    "kind": "user",
    "methods": {},
    "version": 1
  }
}